{
  "_format": "hh-sol-artifact-1",
  "contractName": "DONKGPU",
  "sourceName": "contracts/DONKGPU.sol",
  "abi": [
    {
      "inputs": [],
      "stateMutability": "nonpayable",
      "type": "constructor"
    },
    {
      "inputs": [],
      "name": "ApprovalCallerNotOwnerNorApproved",
      "type": "error"
    },
    {
      "inputs": [],
      "name": "ApprovalQueryForNonexistentToken",
      "type": "error"
    },
    {
      "inputs": [],
      "name": "BalanceQueryForZeroAddress",
      "type": "error"
    },
    {
      "inputs": [],
      "name": "MintERC2309QuantityExceedsLimit",
      "type": "error"
    },
    {
      "inputs": [],
      "name": "MintToZeroAddress",
      "type": "error"
    },
    {
      "inputs": [],
      "name": "MintZeroQuantity",
      "type": "error"
    },
    {
      "inputs": [
        {
          "internalType": "address",
          "name": "operator",
          "type": "address"
        }
      ],
      "name": "OperatorNotAllowed",
      "type": "error"
    },
    {
      "inputs": [],
      "name": "OwnerQueryForNonexistentToken",
      "type": "error"
    },
    {
      "inputs": [],
      "name": "OwnershipNotInitializedForExtraData",
      "type": "error"
    },
    {
      "inputs": [],
      "name": "TransferCallerNotOwnerNorApproved",
      "type": "error"
    },
    {
      "inputs": [],
      "name": "TransferFromIncorrectOwner",
      "type": "error"
    },
    {
      "inputs": [],
      "name": "TransferToNonERC721ReceiverImplementer",
      "type": "error"
    },
    {
      "inputs": [],
      "name": "TransferToZeroAddress",
      "type": "error"
    },
    {
      "inputs": [],
      "name": "URIQueryForNonexistentToken",
      "type": "error"
    },
    {
      "anonymous": false,
      "inputs": [
        {
          "indexed": true,
          "internalType": "address",
          "name": "owner",
          "type": "address"
        },
        {
          "indexed": true,
          "internalType": "address",
          "name": "approved",
          "type": "address"
        },
        {
          "indexed": true,
          "internalType": "uint256",
          "name": "tokenId",
          "type": "uint256"
        }
      ],
      "name": "Approval",
      "type": "event"
    },
    {
      "anonymous": false,
      "inputs": [
        {
          "indexed": true,
          "internalType": "address",
          "name": "owner",
          "type": "address"
        },
        {
          "indexed": true,
          "internalType": "address",
          "name": "operator",
          "type": "address"
        },
        {
          "indexed": false,
          "internalType": "bool",
          "name": "approved",
          "type": "bool"
        }
      ],
      "name": "ApprovalForAll",
      "type": "event"
    },
    {
      "anonymous": false,
      "inputs": [
        {
          "indexed": true,
          "internalType": "uint256",
          "name": "fromTokenId",
          "type": "uint256"
        },
        {
          "indexed": false,
          "internalType": "uint256",
          "name": "toTokenId",
          "type": "uint256"
        },
        {
          "indexed": true,
          "internalType": "address",
          "name": "from",
          "type": "address"
        },
        {
          "indexed": true,
          "internalType": "address",
          "name": "to",
          "type": "address"
        }
      ],
      "name": "ConsecutiveTransfer",
      "type": "event"
    },
    {
      "anonymous": false,
      "inputs": [
        {
          "indexed": true,
          "internalType": "address",
          "name": "previousOwner",
          "type": "address"
        },
        {
          "indexed": true,
          "internalType": "address",
          "name": "newOwner",
          "type": "address"
        }
      ],
      "name": "OwnershipTransferred",
      "type": "event"
    },
    {
      "anonymous": false,
      "inputs": [
        {
          "indexed": true,
          "internalType": "address",
          "name": "from",
          "type": "address"
        },
        {
          "indexed": true,
          "internalType": "address",
          "name": "to",
          "type": "address"
        },
        {
          "indexed": true,
          "internalType": "uint256",
          "name": "tokenId",
          "type": "uint256"
        }
      ],
      "name": "Transfer",
      "type": "event"
    },
    {
      "inputs": [],
      "name": "OPERATOR_FILTER_REGISTRY",
      "outputs": [
        {
          "internalType": "contract IOperatorFilterRegistry",
          "name": "",
          "type": "address"
        }
      ],
      "stateMutability": "view",
      "type": "function"
    },
    {
      "inputs": [
        {
          "internalType": "address",
          "name": "operator",
          "type": "address"
        },
        {
          "internalType": "uint256",
          "name": "tokenId",
          "type": "uint256"
        }
      ],
      "name": "approve",
      "outputs": [],
      "stateMutability": "payable",
      "type": "function"
    },
    {
      "inputs": [
        {
          "internalType": "address",
          "name": "owner",
          "type": "address"
        }
      ],
      "name": "balanceOf",
      "outputs": [
        {
          "internalType": "uint256",
          "name": "",
          "type": "uint256"
        }
      ],
      "stateMutability": "view",
      "type": "function"
    },
    {
      "inputs": [
        {
          "internalType": "uint64",
          "name": "newSupply",
          "type": "uint64"
        }
      ],
      "name": "burnSupply",
      "outputs": [],
      "stateMutability": "nonpayable",
      "type": "function"
    },
    {
      "inputs": [
        {
          "internalType": "address",
          "name": "receiver",
          "type": "address"
        },
        {
          "internalType": "uint256",
          "name": "quantity",
          "type": "uint256"
        }
      ],
      "name": "devMint",
      "outputs": [],
      "stateMutability": "payable",
      "type": "function"
    },
    {
      "inputs": [],
      "name": "flipPublicSaleState",
      "outputs": [],
      "stateMutability": "nonpayable",
      "type": "function"
    },
    {
      "inputs": [],
      "name": "flipWhitelistSaleState",
      "outputs": [],
      "stateMutability": "nonpayable",
      "type": "function"
    },
    {
      "inputs": [
        {
          "internalType": "uint256",
          "name": "tokenId",
          "type": "uint256"
        }
      ],
      "name": "getApproved",
      "outputs": [
        {
          "internalType": "address",
          "name": "",
          "type": "address"
        }
      ],
      "stateMutability": "view",
      "type": "function"
    },
    {
      "inputs": [
        {
          "internalType": "address",
          "name": "owner",
          "type": "address"
        },
        {
          "internalType": "address",
          "name": "operator",
          "type": "address"
        }
      ],
      "name": "isApprovedForAll",
      "outputs": [
        {
          "internalType": "bool",
          "name": "",
          "type": "bool"
        }
      ],
      "stateMutability": "view",
      "type": "function"
    },
    {
      "inputs": [],
      "name": "isPublicSaleEnabled",
      "outputs": [
        {
          "internalType": "bool",
          "name": "",
          "type": "bool"
        }
      ],
      "stateMutability": "view",
      "type": "function"
    },
    {
      "inputs": [],
      "name": "isWhitelistSaleEnabled",
      "outputs": [
        {
          "internalType": "bool",
          "name": "",
          "type": "bool"
        }
      ],
      "stateMutability": "view",
      "type": "function"
    },
    {
      "inputs": [],
      "name": "maxPerTransaction",
      "outputs": [
        {
          "internalType": "uint64",
          "name": "",
          "type": "uint64"
        }
      ],
      "stateMutability": "view",
      "type": "function"
    },
    {
      "inputs": [],
      "name": "maxSupply",
      "outputs": [
        {
          "internalType": "uint64",
          "name": "",
          "type": "uint64"
        }
      ],
      "stateMutability": "view",
      "type": "function"
    },
    {
      "inputs": [],
      "name": "name",
      "outputs": [
        {
          "internalType": "string",
          "name": "",
          "type": "string"
        }
      ],
      "stateMutability": "view",
      "type": "function"
    },
    {
      "inputs": [],
      "name": "owner",
      "outputs": [
        {
          "internalType": "address",
          "name": "",
          "type": "address"
        }
      ],
      "stateMutability": "view",
      "type": "function"
    },
    {
      "inputs": [
        {
          "internalType": "uint256",
          "name": "tokenId",
          "type": "uint256"
        }
      ],
      "name": "ownerOf",
      "outputs": [
        {
          "internalType": "address",
          "name": "",
          "type": "address"
        }
      ],
      "stateMutability": "view",
      "type": "function"
    },
    {
      "inputs": [
        {
          "internalType": "uint256",
          "name": "quantity",
          "type": "uint256"
        }
      ],
      "name": "publicMint",
      "outputs": [],
      "stateMutability": "payable",
      "type": "function"
    },
    {
      "inputs": [],
      "name": "publicPrice",
      "outputs": [
        {
          "internalType": "uint256",
          "name": "",
          "type": "uint256"
        }
      ],
      "stateMutability": "view",
      "type": "function"
    },
    {
      "inputs": [],
      "name": "renounceOwnership",
      "outputs": [],
      "stateMutability": "nonpayable",
      "type": "function"
    },
    {
      "inputs": [
        {
          "internalType": "address",
          "name": "from",
          "type": "address"
        },
        {
          "internalType": "address",
          "name": "to",
          "type": "address"
        },
        {
          "internalType": "uint256",
          "name": "tokenId",
          "type": "uint256"
        }
      ],
      "name": "safeTransferFrom",
      "outputs": [],
      "stateMutability": "payable",
      "type": "function"
    },
    {
      "inputs": [
        {
          "internalType": "address",
          "name": "from",
          "type": "address"
        },
        {
          "internalType": "address",
          "name": "to",
          "type": "address"
        },
        {
          "internalType": "uint256",
          "name": "tokenId",
          "type": "uint256"
        },
        {
          "internalType": "bytes",
          "name": "data",
          "type": "bytes"
        }
      ],
      "name": "safeTransferFrom",
      "outputs": [],
      "stateMutability": "payable",
      "type": "function"
    },
    {
      "inputs": [
        {
          "internalType": "address",
          "name": "operator",
          "type": "address"
        },
        {
          "internalType": "bool",
          "name": "approved",
          "type": "bool"
        }
      ],
      "name": "setApprovalForAll",
      "outputs": [],
      "stateMutability": "nonpayable",
      "type": "function"
    },
    {
      "inputs": [
        {
          "internalType": "string",
          "name": "data",
          "type": "string"
        }
      ],
      "name": "setBaseURI",
      "outputs": [],
      "stateMutability": "nonpayable",
      "type": "function"
    },
    {
      "inputs": [
        {
          "internalType": "uint64",
          "name": "limit",
          "type": "uint64"
        }
      ],
      "name": "setMaxPerTransaction",
      "outputs": [],
      "stateMutability": "nonpayable",
      "type": "function"
    },
    {
      "inputs": [
        {
          "internalType": "bytes32",
          "name": "merkleRoot_",
          "type": "bytes32"
        }
      ],
      "name": "setMerkleRoot",
      "outputs": [],
      "stateMutability": "nonpayable",
      "type": "function"
    },
    {
      "inputs": [
        {
          "internalType": "uint256",
          "name": "price",
          "type": "uint256"
        }
      ],
      "name": "setPublicPrice",
      "outputs": [],
      "stateMutability": "nonpayable",
      "type": "function"
    },
    {
      "inputs": [
        {
          "internalType": "uint256",
          "name": "price",
          "type": "uint256"
        }
      ],
      "name": "setWhitelistPrice",
      "outputs": [],
      "stateMutability": "nonpayable",
      "type": "function"
    },
    {
      "inputs": [
        {
          "internalType": "uint64",
          "name": "newSupply",
          "type": "uint64"
        }
      ],
      "name": "setWhitelistSupply",
      "outputs": [],
      "stateMutability": "nonpayable",
      "type": "function"
    },
    {
      "inputs": [
        {
          "internalType": "bytes4",
          "name": "interfaceId",
          "type": "bytes4"
        }
      ],
      "name": "supportsInterface",
      "outputs": [
        {
          "internalType": "bool",
          "name": "",
          "type": "bool"
        }
      ],
      "stateMutability": "view",
      "type": "function"
    },
    {
      "inputs": [],
      "name": "symbol",
      "outputs": [
        {
          "internalType": "string",
          "name": "",
          "type": "string"
        }
      ],
      "stateMutability": "view",
      "type": "function"
    },
    {
      "inputs": [
        {
          "internalType": "uint256",
          "name": "tokenId",
          "type": "uint256"
        }
      ],
      "name": "tokenURI",
      "outputs": [
        {
          "internalType": "string",
          "name": "",
          "type": "string"
        }
      ],
      "stateMutability": "view",
      "type": "function"
    },
    {
      "inputs": [],
      "name": "totalSupply",
      "outputs": [
        {
          "internalType": "uint256",
          "name": "",
          "type": "uint256"
        }
      ],
      "stateMutability": "view",
      "type": "function"
    },
    {
      "inputs": [
        {
          "internalType": "address",
          "name": "from",
          "type": "address"
        },
        {
          "internalType": "address",
          "name": "to",
          "type": "address"
        },
        {
          "internalType": "uint256",
          "name": "tokenId",
          "type": "uint256"
        }
      ],
      "name": "transferFrom",
      "outputs": [],
      "stateMutability": "payable",
      "type": "function"
    },
    {
      "inputs": [
        {
          "internalType": "address",
          "name": "newOwner",
          "type": "address"
        }
      ],
      "name": "transferOwnership",
      "outputs": [],
      "stateMutability": "nonpayable",
      "type": "function"
    },
    {
      "inputs": [
        {
          "internalType": "uint256",
          "name": "quantity",
          "type": "uint256"
        },
        {
          "internalType": "bytes32[]",
          "name": "_merkleProof",
          "type": "bytes32[]"
        }
      ],
      "name": "whitelistMint",
      "outputs": [],
      "stateMutability": "payable",
      "type": "function"
    },
    {
      "inputs": [],
      "name": "whitelistPrice",
      "outputs": [
        {
          "internalType": "uint256",
          "name": "",
          "type": "uint256"
        }
      ],
      "stateMutability": "view",
      "type": "function"
    },
    {
      "inputs": [],
      "name": "whitelistSupply",
      "outputs": [
        {
          "internalType": "uint64",
          "name": "",
          "type": "uint64"
        }
      ],
      "stateMutability": "view",
      "type": "function"
    },
    {
      "inputs": [],
      "name": "withdrawFunds",
      "outputs": [],
      "stateMutability": "nonpayable",
      "type": "function"
    }
  ],
  "bytecode": "0x608060405268022b1c8c1227a000006009556801e5b8fa8fe2ac0000600a55600b80546001600160c01b0319167103e8000000000000232800000000000000051790553480156200004f57600080fd5b50733cc6cdda760b79bafa08df41ecfa224f810dceb66001604051806060016040528060258152602001620026f460259139604080518082019091526007815266444f4e4b47505560c81b6020820152620000aa3362000208565b6003620000b88382620002fd565b506004620000c78282620002fd565b506001805550506daaeb6d7670e522a718067333cd4e3b15620002005780156200015a57604051633e9f1edf60e11b81526daaeb6d7670e522a718067333cd4e90637d3e3dbe90620001209030908690600401620003c9565b600060405180830381600087803b1580156200013b57600080fd5b505af115801562000150573d6000803e3d6000fd5b5050505062000200565b6001600160a01b038216156200019f5760405163a0af290360e01b81526daaeb6d7670e522a718067333cd4e9063a0af290390620001209030908690600401620003c9565b604051632210724360e11b81523060048201526daaeb6d7670e522a718067333cd4e90634420e48690602401600060405180830381600087803b158015620001e657600080fd5b505af1158015620001fb573d6000803e3d6000fd5b505050505b5050620003e3565b600080546001600160a01b038381166001600160a01b0319831681178455604051919092169283917f8be0079c531659141344cd1fd0a4f28419497f9722a3daafe3b4186f6b6457e09190a35050565b634e487b7160e01b600052604160045260246000fd5b600181811c908216806200028357607f821691505b602082108103620002a457634e487b7160e01b600052602260045260246000fd5b50919050565b601f821115620002f857600081815260208120601f850160051c81016020861015620002d35750805b601f850160051c820191505b81811015620002f457828155600101620002df565b5050505b505050565b81516001600160401b0381111562000319576200031962000258565b62000331816200032a84546200026e565b84620002aa565b602080601f831160018114620003695760008415620003505750858301515b600019600386901b1c1916600185901b178555620002f4565b600085815260208120601f198616915b828110156200039a5788860151825594840194600190910190840162000379565b5085821015620003b95787850151600019600388901b60f8161c191681555b5050505050600190811b01905550565b6001600160a01b0392831681529116602082015260400190565b61230180620003f36000396000f3fe6080604052600436106101b55760003560e01c806301ffc9a7146101ba57806306fdde03146101ef578063081812fc14610211578063095ea7b31461023e57806318160ddd1461025357806323b872dd1461027657806324600fc3146102895780632db115441461029e57806333e61413146102b15780634009920d146102f057806341f434341461031157806342842e0e146103335780634b980d671461034657806355f804b314610366578063627804af146103865780636352211e1461039957806370a08231146103b9578063715018a6146103d9578063717d57d3146103ee5780637cb647591461040e5780638da5cb5b1461042e57806395d89b4114610443578063a10866ef14610458578063a22cb4651461046d578063a945bf801461048d578063b88d4fde146104a3578063c6275255146104b6578063c87b56dd146104d6578063ce4136d9146104f6578063d1b9c0a014610516578063d1beca6414610536578063d2cab0561461054b578063d5abeb011461055e578063da7c37f514610585578063e985e9c5146105a5578063ecbd68df146105c5578063f2fde38b146105e6578063fc1a1c3614610606575b600080fd5b3480156101c657600080fd5b506101da6101d5366004611b6c565b61061c565b60405190151581526020015b60405180910390f35b3480156101fb57600080fd5b5061020461066e565b6040516101e69190611bd9565b34801561021d57600080fd5b5061023161022c366004611bec565b610700565b6040516101e69190611c05565b61025161024c366004611c35565b610744565b005b34801561025f57600080fd5b5061026861075d565b6040519081526020016101e6565b610251610284366004611c5f565b61076b565b34801561029557600080fd5b50610251610796565b6102516102ac366004611bec565b610842565b3480156102bd57600080fd5b50600b546102d890600160801b90046001600160401b031681565b6040516001600160401b0390911681526020016101e6565b3480156102fc57600080fd5b50600b546101da90600160c81b900460ff1681565b34801561031d57600080fd5b506102316daaeb6d7670e522a718067333cd4e81565b610251610341366004611c5f565b61095f565b34801561035257600080fd5b50600b546102d8906001600160401b031681565b34801561037257600080fd5b50610251610381366004611c9b565b610984565b610251610394366004611c35565b610999565b3480156103a557600080fd5b506102316103b4366004611bec565b6109f3565b3480156103c557600080fd5b506102686103d4366004611d0c565b6109fe565b3480156103e557600080fd5b50610251610a4c565b3480156103fa57600080fd5b50610251610409366004611bec565b610a60565b34801561041a57600080fd5b50610251610429366004611bec565b610a6d565b34801561043a57600080fd5b50610231610a7a565b34801561044f57600080fd5b50610204610a89565b34801561046457600080fd5b50610251610a98565b34801561047957600080fd5b50610251610488366004611d35565b610ac1565b34801561049957600080fd5b5061026860095481565b6102516104b1366004611d82565b610ad5565b3480156104c257600080fd5b506102516104d1366004611bec565b610b02565b3480156104e257600080fd5b506102046104f1366004611bec565b610b0f565b34801561050257600080fd5b50610251610511366004611e5d565b610bc2565b34801561052257600080fd5b50610251610531366004611e5d565b610da3565b34801561054257600080fd5b50610251610dcd565b610251610559366004611e86565b610df6565b34801561056a57600080fd5b50600b546102d890600160401b90046001600160401b031681565b34801561059157600080fd5b506102516105a0366004611e5d565b611002565b3480156105b157600080fd5b506101da6105c0366004611f04565b611157565b3480156105d157600080fd5b50600b546101da90600160c01b900460ff1681565b3480156105f257600080fd5b50610251610601366004611d0c565b611185565b34801561061257600080fd5b50610268600a5481565b60006301ffc9a760e01b6001600160e01b03198316148061064d57506380ac58cd60e01b6001600160e01b03198316145b806106685750635b5e139f60e01b6001600160e01b03198316145b92915050565b60606003805461067d90611f37565b80601f01602080910402602001604051908101604052809291908181526020018280546106a990611f37565b80156106f65780601f106106cb576101008083540402835291602001916106f6565b820191906000526020600020905b8154815290600101906020018083116106d957829003601f168201915b5050505050905090565b600061070b826111fb565b610728576040516333d1c03960e21b815260040160405180910390fd5b506000908152600760205260409020546001600160a01b031690565b8161074e81611230565b61075883836112e0565b505050565b600254600154036000190190565b826001600160a01b03811633146107855761078533611230565b610790848484611380565b50505050565b61079e611507565b60006107a8610a7a565b6001600160a01b03164760405160006040518083038185875af1925050503d80600081146107f2576040519150601f19603f3d011682016040523d82523d6000602084013e6107f7565b606091505b505090508061083f5760405162461bcd60e51b815260206004820152600f60248201526e1dda5d1a191c985dc819985a5b1959608a1b60448201526064015b60405180910390fd5b50565b600b54600160c81b900460ff1661089b5760405162461bcd60e51b815260206004820152601f60248201527f5075626c69632073616c6520686173206e6f74207374617274656420796574006044820152606401610836565b600b54600160401b90046001600160401b0316816108b761075d565b6108c19190611f87565b11156108df5760405162461bcd60e51b815260040161083690611f9a565b600b546001600160401b031681111561090a5760405162461bcd60e51b815260040161083690611fc7565b3233146109295760405162461bcd60e51b815260040161083690611ffe565b6009546109369082612024565b3410156109555760405162461bcd60e51b81526004016108369061203b565b61083f3382611566565b826001600160a01b03811633146109795761097933611230565b61079084848461164e565b61098c611507565b600c6107588284836120af565b6109a1611507565b600b54600160401b90046001600160401b0316816109bd61075d565b6109c79190611f87565b11156109e55760405162461bcd60e51b815260040161083690611f9a565b6109ef8282611669565b5050565b600061066882611683565b60006001600160a01b038216610a27576040516323d3ad8160e21b815260040160405180910390fd5b506001600160a01b03166000908152600660205260409020546001600160401b031690565b610a54611507565b610a5e60006116f9565b565b610a68611507565b600a55565b610a75611507565b600d55565b6000546001600160a01b031690565b60606004805461067d90611f37565b610aa0611507565b600b805460ff60c81b198116600160c81b9182900460ff1615909102179055565b81610acb81611230565b6107588383611749565b836001600160a01b0381163314610aef57610aef33611230565b610afb858585856117b5565b5050505050565b610b0a611507565b600955565b6060610b1a826111fb565b610b665760405162461bcd60e51b815260206004820152601f60248201527f55524920717565727920666f72206e6f6e6578697374656e7420746f6b656e006044820152606401610836565b600c8054610b7390611f37565b9050600003610b915760405180602001604052806000815250610668565b600c610b9c836117f9565b604051602001610bad92919061216e565b60405160208183030381529060405292915050565b610bca611507565b600b546001600160401b03600160401b909104811690821610610c4e5760405162461bcd60e51b815260206004820152603660248201527f4e6577206d617820737570706c792073686f756c64206265206c6f776572207460448201527568616e2063757272656e74206d617820737570706c7960501b6064820152608401610836565b610c5661075d565b816001600160401b031611610cdf5760405162461bcd60e51b815260206004820152604360248201527f4e6577206d61782073757070792073686f756c6420626520686967686572207460448201527f68616e2063757272656e74206e756d626572206f66206d696e74656420746f6b606482015262656e7360e81b608482015260a401610836565b600b546001600160401b03600160801b90910481169082161015610d775760405162461bcd60e51b815260206004820152604360248201527f4e6577206d61782073757070792073686f756c6420626520686967686572206f60448201527f7220657175616c20746f2063757272656e742077686974656c69737420737570606482015262706c7960e81b608482015260a401610836565b600b80546001600160401b03909216600160401b02600160401b600160801b0319909216919091179055565b610dab611507565b600b80546001600160401b0319166001600160401b0392909216919091179055565b610dd5611507565b600b805460ff60c01b198116600160c01b9182900460ff1615909102179055565b600b54600160c01b900460ff16610e5a5760405162461bcd60e51b815260206004820152602260248201527f57686974656c6973742073616c6520686173206e6f7420737461727465642079604482015261195d60f21b6064820152608401610836565b600b54600160801b90046001600160401b031683610e7661075d565b610e809190611f87565b1115610eca5760405162461bcd60e51b815260206004820152601960248201527815da1a5d195b1a5cdd081cdd5c1c1b1e48195e18d959591959603a1b6044820152606401610836565b600b546001600160401b0316831115610ef55760405162461bcd60e51b815260040161083690611fc7565b323314610f145760405162461bcd60e51b815260040161083690611ffe565b600a54610f219084612024565b341015610f405760405162461bcd60e51b81526004016108369061203b565b6040516001600160601b03193360601b166020820152600090603401604051602081830303815290604052805190602001209050610fb583838080602002602001604051908101604052809392919081815260200183836020028082843760009201919091525050600d54915084905061188b565b610ff85760405162461bcd60e51b815260206004820152601460248201527324b73b30b634b21026b2b935b63290283937b7b360611b6044820152606401610836565b6107903385611566565b61100a611507565b600b546001600160401b03600160401b9091048116908216106110945760405162461bcd60e51b815260206004820152603c60248201527f4e65772077686974656c69737420737570706c792073686f756c64206265206c60448201527b6f776572207468616e2063757272656e74206d617820737570706c7960201b6064820152608401610836565b61109c61075d565b816001600160401b03161161112b5760405162461bcd60e51b815260206004820152604960248201527f4e65772077686974656c6973742073757070792073686f756c6420626520686960448201527f67686572207468616e2063757272656e74206e756d626572206f66206d696e74606482015268656420746f6b656e7360b81b608482015260a401610836565b600b80546001600160401b03909216600160801b02600160801b600160c01b0319909216919091179055565b6001600160a01b03918216600090815260086020908152604080832093909416825291909152205460ff1690565b61118d611507565b6001600160a01b0381166111f25760405162461bcd60e51b815260206004820152602660248201527f4f776e61626c653a206e6577206f776e657220697320746865207a65726f206160448201526564647265737360d01b6064820152608401610836565b61083f816116f9565b60008160011115801561120f575060015482105b8015610668575050600090815260056020526040902054600160e01b161590565b6daaeb6d7670e522a718067333cd4e3b1561083f57604051633185c44d60e21b81523060048201526001600160a01b03821660248201526daaeb6d7670e522a718067333cd4e9063c617113490604401602060405180830381865afa15801561129d573d6000803e3d6000fd5b505050506040513d601f19601f820116820180604052508101906112c19190612205565b61083f5780604051633b79c77360e21b81526004016108369190611c05565b60006112eb826109f3565b9050336001600160a01b03821614611324576113078133611157565b611324576040516367d9dca160e11b815260040160405180910390fd5b60008281526007602052604080822080546001600160a01b0319166001600160a01b0387811691821790925591518593918516917f8c5be1e5ebec7d5bd14f71427d1e84f3dd0314c0f7b2291e5b200ac8c7c3b92591a4505050565b600061138b82611683565b9050836001600160a01b0316816001600160a01b0316146113be5760405162a1148160e81b815260040160405180910390fd5b60008281526007602052604090208054338082146001600160a01b0388169091141761140b576113ee8633611157565b61140b57604051632ce44b5f60e11b815260040160405180910390fd5b6001600160a01b03851661143257604051633a954ecd60e21b815260040160405180910390fd5b801561143d57600082555b6001600160a01b0386811660009081526006602052604080822080546000190190559187168152208054600101905561147a85600160e11b6118a1565b600085815260056020526040812091909155600160e11b841690036114cf576001840160008181526005602052604081205490036114cd5760015481146114cd5760008181526005602052604090208490555b505b83856001600160a01b0316876001600160a01b03166000805160206122ac83398151915260405160405180910390a45b505050505050565b33611510610a7a565b6001600160a01b031614610a5e5760405162461bcd60e51b815260206004820181905260248201527f4f776e61626c653a2063616c6c6572206973206e6f7420746865206f776e65726044820152606401610836565b600154600082900361158b5760405163b562e8dd60e01b815260040160405180910390fd5b6001600160a01b038316600090815260066020526040902080546001600160401b0184020190556115c2836001841460e11b6118a1565b6000828152600560205260408120919091556001600160a01b0384169083830190839083906000805160206122ac8339815191528180a4600183015b81811461162457808360006000805160206122ac833981519152600080a46001016115fe565b508160000361164557604051622e076360e81b815260040160405180910390fd5b60015550505050565b61075883838360405180602001604052806000815250610ad5565b6109ef8282604051806020016040528060008152506118b6565b600081806001116116e0576001548110156116e05760008181526005602052604081205490600160e01b821690036116de575b806000036116d75750600019016000818152600560205260409020546116b6565b9392505050565b505b604051636f96cda160e11b815260040160405180910390fd5b600080546001600160a01b038381166001600160a01b0319831681178455604051919092169283917f8be0079c531659141344cd1fd0a4f28419497f9722a3daafe3b4186f6b6457e09190a35050565b3360008181526008602090815260408083206001600160a01b03871680855290835292819020805460ff191686151590811790915590519081529192917f17307eab39ab6107e8899845ad3d59bd9653f200f220920489ca2b5937696c31910160405180910390a35050565b6117c084848461076b565b6001600160a01b0383163b15610790576117dc8484848461191c565b610790576040516368d2bf6b60e11b815260040160405180910390fd5b6060600061180683611a07565b60010190506000816001600160401b0381111561182557611825611d6c565b6040519080825280601f01601f19166020018201604052801561184f576020820181803683370190505b5090508181016020015b600019016f181899199a1a9b1b9c1cb0b131b232b360811b600a86061a8153600a850494508461185957509392505050565b6000826118988584611add565b14949350505050565b4260a01b176001600160a01b03919091161790565b6118c08383611566565b6001600160a01b0383163b15610758576001548281035b6118ea600086838060010194508661191c565b611907576040516368d2bf6b60e11b815260040160405180910390fd5b8181106118d7578160015414610afb57600080fd5b604051630a85bd0160e11b81526000906001600160a01b0385169063150b7a0290611951903390899088908890600401612222565b6020604051808303816000875af192505050801561198c575060408051601f3d908101601f191682019092526119899181019061225f565b60015b6119ea573d8080156119ba576040519150601f19603f3d011682016040523d82523d6000602084013e6119bf565b606091505b5080516000036119e2576040516368d2bf6b60e11b815260040160405180910390fd5b805181602001fd5b6001600160e01b031916630a85bd0160e11b149050949350505050565b60008072184f03e93ff9f4daa797ed6e38ed64bf6a1f0160401b8310611a465772184f03e93ff9f4daa797ed6e38ed64bf6a1f0160401b830492506040015b6904ee2d6d415b85acef8160201b8310611a70576904ee2d6d415b85acef8160201b830492506020015b662386f26fc100008310611a8e57662386f26fc10000830492506010015b6305f5e1008310611aa6576305f5e100830492506008015b6127108310611aba57612710830492506004015b60648310611acc576064830492506002015b600a83106106685760010192915050565b600081815b8451811015611b2257611b0e82868381518110611b0157611b0161227c565b6020026020010151611b2a565b915080611b1a81612292565b915050611ae2565b509392505050565b6000818310611b465760008281526020849052604090206116d7565b5060009182526020526040902090565b6001600160e01b03198116811461083f57600080fd5b600060208284031215611b7e57600080fd5b81356116d781611b56565b60005b83811015611ba4578181015183820152602001611b8c565b50506000910152565b60008151808452611bc5816020860160208601611b89565b601f01601f19169290920160200192915050565b6020815260006116d76020830184611bad565b600060208284031215611bfe57600080fd5b5035919050565b6001600160a01b0391909116815260200190565b80356001600160a01b0381168114611c3057600080fd5b919050565b60008060408385031215611c4857600080fd5b611c5183611c19565b946020939093013593505050565b600080600060608486031215611c7457600080fd5b611c7d84611c19565b9250611c8b60208501611c19565b9150604084013590509250925092565b60008060208385031215611cae57600080fd5b82356001600160401b0380821115611cc557600080fd5b818501915085601f830112611cd957600080fd5b813581811115611ce857600080fd5b866020828501011115611cfa57600080fd5b60209290920196919550909350505050565b600060208284031215611d1e57600080fd5b6116d782611c19565b801515811461083f57600080fd5b60008060408385031215611d4857600080fd5b611d5183611c19565b91506020830135611d6181611d27565b809150509250929050565b634e487b7160e01b600052604160045260246000fd5b60008060008060808587031215611d9857600080fd5b611da185611c19565b9350611daf60208601611c19565b92506040850135915060608501356001600160401b0380821115611dd257600080fd5b818701915087601f830112611de657600080fd5b813581811115611df857611df8611d6c565b604051601f8201601f19908116603f01168101908382118183101715611e2057611e20611d6c565b816040528281528a6020848701011115611e3957600080fd5b82602086016020830137600060208483010152809550505050505092959194509250565b600060208284031215611e6f57600080fd5b81356001600160401b03811681146116d757600080fd5b600080600060408486031215611e9b57600080fd5b8335925060208401356001600160401b0380821115611eb957600080fd5b818601915086601f830112611ecd57600080fd5b813581811115611edc57600080fd5b8760208260051b8501011115611ef157600080fd5b6020830194508093505050509250925092565b60008060408385031215611f1757600080fd5b611f2083611c19565b9150611f2e60208401611c19565b90509250929050565b600181811c90821680611f4b57607f821691505b602082108103611f6b57634e487b7160e01b600052602260045260246000fd5b50919050565b634e487b7160e01b600052601160045260246000fd5b8082018082111561066857610668611f71565b60208082526013908201527213585e081cdd5c1c1b1e48195e18d959591959606a1b604082015260600190565b6020808252601e908201527f457863656564656420706572207472616e73616374696f6e206c696d69740000604082015260600190565b6020808252600c908201526b4e6f20636f6e74726163747360a01b604082015260600190565b808202811582820484141761066857610668611f71565b602080825260149082015273125b98dbdc9c9958dd0811551208185b5bdd5b9d60621b604082015260600190565b601f82111561075857600081815260208120601f850160051c810160208610156120905750805b601f850160051c820191505b818110156114ff5782815560010161209c565b6001600160401b038311156120c6576120c6611d6c565b6120da836120d48354611f37565b83612069565b6000601f84116001811461210e57600085156120f65750838201355b600019600387901b1c1916600186901b178355610afb565b600083815260209020601f19861690835b8281101561213f578685013582556020948501946001909201910161211f565b508682101561215c5760001960f88860031b161c19848701351681555b505060018560011b0183555050505050565b600080845461217c81611f37565b6001828116801561219457600181146121a9576121d8565b60ff19841687528215158302870194506121d8565b8860005260208060002060005b858110156121cf5781548a8201529084019082016121b6565b50505082870194505b5050505083516121ec818360208801611b89565b64173539b7b760d91b9101908152600501949350505050565b60006020828403121561221757600080fd5b81516116d781611d27565b6001600160a01b038581168252841660208201526040810183905260806060820181905260009061225590830184611bad565b9695505050505050565b60006020828403121561227157600080fd5b81516116d781611b56565b634e487b7160e01b600052603260045260246000fd5b6000600182016122a4576122a4611f71565b506001019056feddf252ad1be2c89b69c2b068fc378daa952ba7f163c4a11628f55a4df523b3efa2646970667358221220e70f5f04eb2c3fd89cbb54fe4c7e983f3d7c8473c41ce39ddafac85a4efb9aa764736f6c63430008120033444f4e4b205669727475616c20475055206d696e696e672067726170686963206361726473",
  "linkReferences": {},
  "deployedLinkReferences": {}
}